:020000040800F2
:1000000000080020690600089BA100089BA10008C9
:10001000EDAC00089BA100089BA100089BA1000873
:100020009BA100089BA100089BA100089BA10008C0
:100030009BA100089BA100089BA100089BA10008B0
:100040009BA100089BA100089BA100089BA10008A0
:100050009BA100089BA100089BA100089BA1000890
:100060009BA100089BA100089BA100089BA1000880
:100070009BA1000875380008653800089BA100089E
:100080009BA100089BA100089BA100089BA1000860
:100090009BA10008090D00089BA100089BA1000876
:1000A0009BA10008E1080008B90800089BA100080E
:1000B0009BA1000835950008E19F000877BC000867
:1000C00073BC0008719700088DBC00087BBC000859
:1000D000B19F00087FBC000821A0000889A000088B
:1000E0009BA100089BA100089BA100089BA1000800
:1000F0009BA100089BA100089BA100089BA10008F0
:100100009BA100089BA100089BA100089BA10008DF
:100110009BA100089BA100089BA100089BA10008CF
:100120009BA100089BA100089BA100089BA10008BF
:100130009BA100089BA100089BA100089BA10008AF
:100140009BA100089BA100089BA100089BA100089F
:10015000B58500089BA1000861BC000867BC0008C9
:100160009BA100089BA100089BA100089BA100087F
:1001800008B500F001F808BD5FF800F07D3F0008F9
:10019000000000000000000000000000000000005F
:1001A0002DE9F0418AB00646002402E003F03AFC53
:1001B0000134042CFADD0BF096FE974BD3E9004591
:1001C0009FED937B83ED007B0BF088FE04F480644D
:1001D0000CB9002644E00122002130460BF06AFAF7
:1001E0008E4A136803F500631360F2E70BF07BFEA1
:1001F000044614E00DF12703894A8A498A4803F02E
:10020000D3FB9DF82700894B03EBC02003F08CFC47
:100210009DF82730864A8749874803F0E9FB814BE0
:100220001B78002BE6D19DF82600804B03EBC02005
:1002300003F07AFC9DF826307D4A7E497E4803F023
:10024000D7FB20460BF04AFE01237C4A13707C4A00
:1002500013707C4A137002E020460BF03FFE01361B
:10026000794B1B78DBB2B34269DD0BF03CFE0546EF
:100270000DF12603754A7449754803F095FB044651
:1002800028460BF02BFE002C59D09DF826306748ED
:1002900000EBC32040F2FC7104300AF0CAFD0446B2
:1002A000674B1B780BBB6B4B1B6883429ED30BF0D9
:1002B0001AFE04465B4D9DF82630594A2946664889
:1002C00003F096FB2B78DBB2012BC5D90DF1270388
:1002D000534A2946544803F067FB9DF827305F4A8C
:1002E0005F49604803F084FBB6E70BF0FCFD054670
:1002F0009DF826004D4B03EBC02003F015FC9DF844
:1003000026304B4A4B494C4803F072FB28460BF011
:10031000E5FD4C4B1B7813B1013B4A4A13704D4B22
:100320001B68A34202D2474B01221A70454B1B782F
:10033000002B94D1424A1370404A13708FE74A4B06
:100340001B781BB93B4B1B78002B4BD10BF0C6F92C
:100350000446464B1B680BB9444B1860434B1B6863
:10036000E31A434A934240F2C880424BD3E9002348
:10037000950A45EA83553D4B1A68A21A3E4B9A42AC
:1003800033D93C4BD3E90067F9000023F00041EA80
:10039000567103F089FE8446204B1E682D4B1A6867
:1003A00019684FF47A7303FB01F1344BA3FB01038B
:1003B0005B09632900D80123264909684808B3EB83
:1003C000510F00D8184616B9BCF1050F10D9214BB2
:1003D0001A680244B2F5FA6F54D3294B9A4253D9A2
:1003E000274A51E003F0C4FBB0E74FF0000CD3E71D
:1003F000BCF1030FEED8174B1B68834203D9154B92
:100400001A68121AE6E74FF4FA62E6E7AFF30080E3
:10041000000000000000000000080020F42500207B
:10042000F82500203DEC03203FEC0320D8270020D6
:100430007026002040EC032041EC03203CEC03201C
:100440003AEC032039EC032043EC0320E82600209B
:1004500045EC032014ED03203EEC03206027002030
:1004600046EC032047EC03203BEC0320E82500206A
:100470003F4B4C000808002040420F001F85EB5105
:10048000008793034FF4FA621F4B1A601F4B1968E1
:100490001F4B1B681F4A1278D2B21F480678F6B26B
:1004A0001E480078C0B21E4F3F78FFB2DFF880E0F0
:1004B0009EF800E0BEF1000F22D0DFF878E0DFF810
:1004C0004880D8F80080CDF81880CDF814E0049763
:1004D000039002960192CDF800C02A46114803F01D
:1004E000A9FF114B1C600023084A13600F4A00202B
:1004F0000021C2E90001064A13600AB0BDE8F0819C
:10050000DFF834E0DBE700BF14ED0320F025002026
:10051000F425002040EC032043EC032046EC0320AC
:100520003DEC032074D60008E825002008080020D0
:100530003CEC03206CD6000870D600080348044B3E
:10054000834202D0034B03B118477047D0ED03201C
:10055000D0ED032000000000064B0749C91A89109E
:1005600048BF0131491003D0044B0BB10148184773
:10057000704700BFD0ED0320D0ED03200000000045
:1005800010B5064C237843B9FFF7D8FF044B13B1DD
:100590000448AFF300800123237010BD34EC032026
:1005A000000000003017010808B5054B1BB10549D4
:1005B0000548AFF30080BDE80840FFF7CDBF00BF9E
:1005C00000000000480A002030170108A3F5803A17
:1005D000704700BF174B002B08BF134B9D46FFF71A
:1005E000F5FF00218B460F461348144A121A0AF0F1
:1005F00095FE0E4B002B00D098470D4B002B00D0E2
:1006000098470020002104000D000D48002802D06A
:100610000C48AFF3008003F0E9FE200029000AF047
:10062000FEFB03F0D1FE00BF000008000000000048
:1006300000000000000800200008002080EC0320DB
:10064000000000000000000008B50448044A121A27
:100650009210044909F0A2FD08BD00BF8001000806
:10066000A001000880EC032008B5154B83F30A882D
:1006700000F030F8FFF7E8FF124A0AE0106851680E
:1006800050F8230041F82300013391688B42F5D3E1
:100690000C320D4B9A4201D20023F6E70B4A08E0D8
:1006A0001168002041F82300013351688B42F7D3D1
:1006B0000832074B9A4201D20023F6E7FFF78AFF80
:1006C00000000020381701084417010844170108EA
:1006D0004417010870B5134B134A9A60D3F8882069
:1006E00042F47002C3F88820104A4FF480419166AA
:1006F0000F4D05F500544FF0FF3222660D4A626639
:100700000222C3F8D020BFF34F8FBFF36F8F0020BA
:1007100002F046FB4FF44036E66000200AF007F88E
:100720002E6170BD00ED00E0000000080090005058
:1007300000800044F7FF3700014B1860704700BF8E
:10074000B0EC032008B5064B1860064B1B6F03F096
:100750000703032B00D008BD0BF0C2FAFBE700BF74
:10076000B8EC03200080005010B504460FE00123D0
:10077000834024EA03040F2814D800EB40020E4BF8
:1007800003EB82035A6812B19968C0B2904794B1E2
:10079000234600201F28EAD813F0010FE7D10130CB
:1007A0005B08F7E7103800EB40039B00B033024AC8
:1007B00013440433E6E710BD600A002008B50D4875
:1007C0000BF0A6FB192002F0DBFA28B91A2002F080
:1007D000D7FA40B9002008BD192002F0E1FA19202B
:1007E00009F0A5FFF2E71A2002F0DAFA1A2009F060
:1007F0009EFFEFE7C8CE000840B310B5044603786B
:100800004BB1022B1DD0032B1ED0012B01D0002396
:1008100003E03F2301E040F2FF336278D34013F05E
:10082000010F15D00BF068FB23786278012191400D
:1008300003EB43031B01074AD1500BF058FB002088
:1008400010BD40F2FF33E8E73F23E6E72220704780
:100850002120F5E740D0035040B310B5044603789B
:100860004BB1022B1DD0032B1ED0012B01D0002336
:1008700003E03F2301E040F2FF336278D34013F0FE
:10088000010F15D00BF038FB2378627801219140DD
:1008900003EB43031B01074AD1500BF028FB002058
:1008A00010BD40F2FF33E8E73F23E6E72220704720
:1008B0002120F5E740E0035008B5084BD3F82404A5
:1008C000D3F82024104000F0553020F0502003F5DC
:1008D0000053C3F82004FFF747FF08BD00C00350D2
:1008E00008B5084BD3F82404D3F82024104000F0B6
:1008F000AA3020F0A02003F50053C3F82004FFF72E
:1009000033FF08BD00C00350F0B585B00C469446D7
:100910009DF83410664A1278002A00F0BD80054622
:10092000BCF1070F00F2BA800A9A002A00F0B880E2
:100930000B9A002A00F0B6800E9AB2F5006F00F311
:10094000B38001285BD05B4A02EB0C12127B002AB9
:1009500000F0AC8000220092019202920392564A6B
:1009600002EB4C1E002C4FD14FEA4C160020905148
:10097000CEF80400CEF80800CEF80C009EF8020075
:1009800040F010008EF802009EF8030040F03000A6
:100990008EF8030021B9C1B241F003018EF80310B3
:1009A00000930E9B013B444A4FEA4C1002EB4C1162
:1009B000165A63F30E1616520A9B8B600B9B4B6004
:1009C000CB789DF83C2062F38303CB70012D36D0A9
:1009D000109B002B56D0374A4FEA0C1102EB0C1338
:1009E00010985050119A5A6000249C605D737246B2
:1009F0006946604601F054FE204605B0F0BD0C9AF1
:100A0000002AA0D12D48F8E72B4F4FEA4C1607EBF0
:100A10004C120020B85150609060D060907840F047
:100A200010009070D07840F00300D0700029B7D14A
:100A300007EB4C12C1B241F03001D170B0E70E4665
:100A40000A7B42F001020A73D2B242F002020A7338
:100A5000CA68042161F39F02F26006F1100796E86C
:100A60000F0087E80F00F2696FF0030161F39F0246
:100A7000F2610C9B7361012CAAD10B9AB2610C9AA2
:100A80007260A5E7002DA6D10B4B03EB4C139A78AF
:100A90006FF304129A709EE70948AEE70748ACE787
:100AA0000648AAE70548A8E70448A6E70548A4E7DA
:100AB00035EC0320C80C0020C80B0020018000F09A
:100AC000028000F0078000F0134B1B78FBB110B5DB
:100AD0000446F0B10BF010FA0023072B13D80F4A8D
:100AE00002EB0312127B0AB10133F6E723600B4AD3
:100AF000190102EB031301241C73002454500BF062
:100B0000F6F9204602E00BF0F2F9054810BD054861
:100B100070470548FAE700BF35EC0320C80C0020F9
:100B2000048000F0028000F0018000F038B50BF086
:100B3000E3F904460023072B06DC0C4A02EB031200
:100B4000127B12B90133F6E7002222B120460BF0E6
:100B5000CEF9074838BD01F04FFD0025054B1D704B
:100B600020460BF0C4F92846F4E700BFC80C00206B
:100B7000058000F035EC03200F4B1B78BBB110B59E
:100B80000446072815D80BF0B7F90C4B03EB0413F8
:100B90001B7B1BB90BF0ABF909480BE0074B03EBD0
:100BA000041300241C730BF0A2F9204602E0054850
:100BB0007047054810BD00BF35EC0320C80C00206D
:100BC000068000F0028000F0018000F000B583B0E4
:100BD000134B1B68019300238DF804300BF08CF944
:100BE000104B1B7833B90F4B01221A700BF07FF9B1
:100BF000002309E00BF07BF90B480EE00B4A02EBF7
:100C00000312002111730133072BF7DD08238DF840
:100C1000073001A801F014FD002003B05DF804FBCB
:100C200060BF000835EC0320038000F0C80C0020F2
:100C300010B5104C2478BCB1072817DC0E4C04EB1F
:100C40000014247BA4B10C4C4FEA001E04EB001CE2
:100C500044F80E30029BCCF804300024CCF8084055
:100C600001F01EFD204610BD0448FCE70448FAE7E9
:100C70000448F8E735EC0320C80C0020028000F09F
:100C8000018000F0078000F008B50A4B1B785BB1CB
:100C900007280BD8084B03EB00131B7B43B1002143
:100CA00001F0C0FC002008BD0448FCE70448FAE756
:100CB0000448F8E735EC0320C80C0020028000F05F
:100CC000018000F0078000F008B50A4B1B785BB18B
:100CD00007280BD8084B03EB00131B7B43B1012102
:100CE00001F0A0FC002008BD0448FCE70448FAE736
:100CF0000448F8E735EC0320C80C0020028000F01F
:100D0000018000F0078000F0F8B5194B1F6D5B6D96
:100D10001F4002D40125002402E0FEE701346D00EB
:100D2000072C24D83D42F9D0124B1D652301124AED
:100D3000D358002BF2D002EB0416B1680131B16038
:100D400072682046984780F00100C0B2737B012B87
:100D5000E4D10028E2D0094B03EB44131A7B6FF374
:100D600041021A731A7F6FF341021A77D6E7F8BD72
:100D70000000045000200450C80C0020C80B0020C4
:100D800038B505460C46164BD3F8283103F0070357
:100D9000013B052B20D8DFE803F003131B0F0B17D3
:100DA0000AF078FF052305B1286004B1236038BD3F
:100DB0000AF070FF0623F6E70AF0B6FF0723F2E712
:100DC0000AF0A8FF0323EEE70AF0A4FF0423EAE7F2
:100DD0000AF09CFF0223E6E700231846E3E700BF82
:100DE0000080005030B583B005460C4600230193C7
:100DF000154BD3F8203203F00703042B21D8DFE88A
:100E000003F0030B11161B0001230DB1019A2A6098
:100E100004B1236003B030BD002101A8FFF7B0FF8B
:100E20001223F2E70AF080FF01900723EDE70BF0B1
:100E300069F801900A23E8E70AF0C0FF019009234E
:100E4000E3E70023E1E700BF00800050024B4FF4CE
:100E500080321A67704700BF00900050204B9842C4
:100E600036D009D91F4B984236D01F4B984222D119
:100E70001E4BD3F8D0007047A3F5B703A3F5586312
:100E8000984221D006D91A4B984212D1174BD3F869
:100E9000BC007047174B984202D0174B984203D1C1
:100EA000124BD3F8A0007047144B9842F8D00020A2
:100EB000704700207047124B984203D10B4BD3F878
:100EC000C800704700207047084BD3F8B80070473F
:100ED000064BD3F8C0007047044BD3F8CC007047E2
:100EE000C0EA21010048E801005A62020080E00FD8
:100EF0000024F40080841E0000093D0040420F00E1
:100F000080BA8C0138B505460C460F4BD3F88030BB
:100F100003F00303022B0ED0032B10D0012B06D0BD
:100F20000023184605B1286004B1236038BD0AF0DB
:100F3000B7FE0E23F6E70AF0F7FE0723F2E70AF002
:100F4000A9FE0623EEE700BF0080005038B5054635
:100F50000C46104BD3F8000100F00300032815D80D
:100F6000DFE800F002080C10012305B1286004B18D
:100F7000236038BD0AF0CEFE0323F6E70AF01EFF19
:100F80000923F2E70AF0CCFE0823EEE70023184617
:100F9000EBE700BF0080005038B505460C46174B04
:100FA000D3F8200100F00700062823D8DFE800F07E
:100FB000040A0E16121A1E00012305B1286004B19E
:100FC000236038BD0AF066FE0523F6E70AF0A2FEAC
:100FD0000323F2E70AF0A8FE0723EEE70AF096FEE5
:100FE0000223EAE70AF056FE0623E6E70AF092FE3D
:100FF0000423E2E700231846DFE700BF008000502B
:1010000038B505460C46104BD3F8400100F00300FC
:10101000032815D8DFE800F002080C10012305B101
:10102000286004B1236038BD0AF06CFF0A23F6E79C
:101030000AF0C4FE0923F2E70AF067FF0C23EEE78B
:1010400000231846EBE700BF0080005030B583B0A6
:1010500005460C4600230193144BD3F8603203F08D
:101060000703013B032B1FD8DFE803F0020E19141E
:10107000002101A8FFF790FF10230DB1019A2A600B
:1010800004B1236003B030BD002101A8FFF7B8FF11
:101090001123F2E70AF048FE01900723EDE70AF07A
:1010A00035FE01900223E8E70023E6E700800050C8
:1010B00030B583B005460C4600230193144BD3F89A
:1010C000943203F00703013B032B1FD8DFE803F042
:1010D000020E1914002101A8FFF75EFF10230DB1C5
:1010E000019A2A6004B1236003B030BD002101A839
:1010F000FFF786FF1123F2E70AF016FE019007239F
:10110000EDE70AF003FE01900223E8E70023E6E79B
:101110000080005030B583B005460C460023019393
:101120000C4BD3F8703203F00303012B09D0022BD0
:101130000DD115230DB1019A2A6004B1236003B0CB
:1011400030BD002101A8FFF75BFF1123F2E7002368
:10115000F0E700BF0080005038B505460C46104B44
:10116000D3F8600100F00300032815D8DFE800F091
:1011700002080C10012305B1286004B1236038BDBA
:101180000AF0C0FE0A23F6E70AF018FE0923F2E788
:101190000AF0BBFE0C23EEE700231846EBE700BF86
:1011A00000800050324B984252D029D8314B98429F
:1011B00048D009D9304B984247D0304B98421DD186
:1011C0002F4BD3F8800070472E4B984237D005D96B
:1011D0002D4B984210D12A4B186F70472B4B9842D9
:1011E00002D02B4B984202D1254B986D7047294B6A
:1011F0009842F9D0002070470020704700207047C7
:10120000254B98422CD00CD9244B98422CD003F576
:10121000740303F5105398420FD1194BD3F898007B
:1012200070471F4B984217D01E4B984203D1144B66
:10123000D3F88C0070470020704700207047104B97
:10124000586E70470E4B586F70470D4B986F704734
:101250000B4BD3F884007047094BD3F888007047D4
:10126000074BD3F890007047054BD3F894007047B4
:101270000048E8010024F400C0EA210180BA8C0192
:101280000080E00FC0CF6A00405DC60080841E0071
:1012900000093D0040420F00007E56030090D0033D
:1012A00080D54302006CDC0270B582B006460D4664
:1012B00000230193104BD3F8804104F00304022C67
:1012C00016D0032C0FD0012C07D000240EB1019BA7
:1012D000336005B12C6002B070BD002101A8FFF79A
:1012E0005BFE1024F2E70AF01FFD01900724EDE7F2
:1012F0000AF00CFD0190E9E70080005038B5054682
:101300000C46104BD3F8400200F00300032815D818
:10131000DFE800F002080C10012305B1286004B1D9
:10132000236038BD0AF0EEFD0A23F6E70AF046FD19
:101330000923F2E70AF0E9FD0C23EEE70023184643
:10134000EBE700BF0080005038B505460C46134B54
:10135000D3F8000200F0070004281BD8DFE800F0F3
:1013600003090D111500012305B1286004B12360A4
:1013700038BD0AF0C7FD0A23F6E70AF01FFD09236E
:10138000F2E70AF0C2FD0C23EEE70AF0A9FC800A9E
:101390000F23E9E700231846E6E700BF008000506E
:1013A00038B505460C46134BD3F8080200F0070089
:1013B00004281BD8DFE800F003090D1115000123F4
:1013C00005B1286004B1236038BD0AF09BFD0A23F3
:1013D000F6E70AF0F3FC0923F2E70AF096FD0C2386
:1013E000EEE70AF07DFC800A0F23E9E700231846A8
:1013F000E6E700BF00800050B0F5207F20D00ED877
:10140000B0F5007F16D020D810B1B0F5C07F04D160
:101410000F4B186FC0F3033018E0002016E0B0F552
:10142000607F05D10A4BD3F88000C0F301100DE0B6
:1014300000200BE0064BD3F89000C0F3046005E0F9
:10144000034B186FC0F3802000E00020013070478C
:101450000080005038B505460C46174B4FF48032DB
:101460009A660020FFF7C8FF05FB00F0134BDA690E
:1014700002F4803241F67131D9635B6823F4401382
:101480006CB90F49884207D800210B430B494B60C8
:101490000AB10022CA6338BD4FF48011F5E7002C71
:1014A00007DD0849884201D80021EEE74FF480119A
:1014B000EBE74FF44011E8E70090005000000350C4
:1014C000005A6202002D3101430905D0012B0DD0D5
:1014D000022B0DD0002200E0002200F01F0049B1D5
:1014E00002F580520123834013607047034AF4E7FA
:1014F000034AF2E702F50052F4E700BF64800050AF
:101500006880005008B5802008F0A0FE034B984288
:1015100003D8034B4FF480321A6708BD005A6202A9
:1015200000A0005000B583B000230193B0F5807F88
:1015300000F04A8118D9B0F5F06F00F04A8140F20E
:10154000DB80B0F5206F00F0538140F20481B0F5EC
:10155000406F00F04881B0F5486F40F00C8101A960
:101560000020FFF7A5FDDFE0802800F2DD802428C1
:10157000C0F0DA8024385C2800F2D68001A353F84A
:1015800020F000BFBF170008BF170008BF170008F2
:10159000BF170008BF17000829170008B517000873
:1015A000291700084D170008DD1700082917000843
:1015B000291700082917000829170008291700080B
:1015C00029170008291700082917000829170008FB
:1015D00029170008291700082917000829170008EB
:1015E0002917000829170008D31700080D1700084D
:1015F00029170008291700082917000829170008CB
:1016000029170008291700082917000829170008BA
:1016100029170008291700082917000829170008AA
:101620002917000829170008BF1700082917000804
:1016300029170008291700086D1700082917000846
:1016400029170008F11700087D1700083D1700084A
:10165000E7170008291700082917000829170008AC
:1016600029170008291700085F1500082917000826
:10167000291700082917000829170008291700084A
:10168000291700082917000829170008291700083A
:10169000291700082917000829170008291700082A
:1016A000291700082917000829170008291700081A
:1016B000291700082917000829170008291700080A
:1016C00029170008291700082917000829170008FA
:1016D00029170008291700082917000829170008EA
:1016E00029170008291700082917000829170008DA
:1016F0002917000887170008B0F5B06F5AD00AD92B
:10170000B0F5D06F6AD0B0F5E06F1CD101A9002010
:10171000FFF7F4FD08E0B0F5607F04D101A90020D7
:10172000FFF7F0FB00E003D2019803B05DF804FB83
:10173000B0F5806F43D0B0F5A06FF5D101A90020BE
:10174000FFF750FBF0E7B0F5C06FEDD101A9002025
:10175000FFF756FCE8E7B0F5086F04D101A90020B7
:10176000FFF7F4FBE0E7B0F5106FDDD101A9002031
:10177000FFF716FED8E7B0F5286FD5D101A90020F4
:10178000FFF7C8FCD0E71D4B1B6F03F00703013BBD
:10179000032BC9D8DFE803F00B02050805230193EA
:1017A000C2E703230193BFE708230193BCE70223A9
:1017B0000193B9E701A90020FFF776FDB4E701A97D
:1017C0000020FFF7E9FBAFE701A9002008F019FDB1
:1017D000AAE701A90020FFF7BFFCA5E701A90020A7
:1017E000FFF7B2FDA0E701A90020FFF7C9FA9BE7C8
:1017F00001A90020FFF72AFC96E700BF00800050F7
:10180000094B596E03F580534FF480325A66074AEC
:10181000536A23F00103536211F4803F03D1044B58
:101820004FF480325A6670470080005000C0075065
:1018300000A0005010B504468020FFF773FE032877
:1018400000F0AE805D4B4FF480125A665C4B45F65B
:101850000E02C3F8802003F580524FF0A061916220
:1018600003F500534FF480329A62554B9B6D13F48D
:10187000803FFAD1524B9B6D13F0804FFAD1226812
:1018800063681B0543EA0263227B43EA0243627BEF
:1018900043EA0233A27B43EA8213E27B1343484AC2
:1018A0001361936903F00043216943EA816361692D
:1018B00043EA0163217E43EA0143617E43EA012357
:1018C000A17E0B439361136A23F00F03E269002AA0
:1018D00046D111460B43E17E43EA81031A43384B5C
:1018E0001A62E369002B3DD1354A916A354B0B40B2
:1018F00094F8201043EA411394F8211043EA0113AD
:1019000094F8241043EAC10343F4803393622C4BD0
:101910009A6D2D4B9343FAD1294A02F580514FF02D
:1019200080738B62136923F47003A06843EA005349
:1019300013614FF000438B6194F822301BB9234BA5
:101940004FF080729A6294F8233013BB1F4B4FF410
:1019500080329A621A4B9B6D13F0804FFAD118E0D7
:101960000821B7E7022B1CD0154A916A154B0B4092
:1019700094F8201043EA411394F8221043EA0163DB
:1019800094F8241043EAC10394F8231043EA014376
:10199000936294F825301BB1094B0D4AC3F880209F
:1019A00010BD074B00221A619A614FF408524FF4A0
:1019B0007F41084808F017FCD6E700BF00900050B0
:1019C0000040005AC7FFFEFE030001000060005AFD
:1019D000F1A7FFFF3440005A014B93F90000704714
:1019E000BEED0320014B1880704700BFB4ED03200B
:1019F00008B51B4B4FF480025A6603F5D833022218
:101A00005A60184B9B6813F4803FFAD1012806D026
:101A1000144B00225A62134B00225A6008BD0AF090
:101A200079F9114B984212D003F5122303F5F863AC
:101A3000984210D000EB8001490A400A0B4AB2FBE1
:101A4000F0F2084BD9621A6301225A62E3E745F6C5
:101A50007A120749F5E745F61A020649F1E700BF91
:101A6000009000500040025000F049026466666633
:101A7000D8B80500BBCF0500B0F5207F5DD02DD8CC
:101A8000B0F5007F4ED061D810B1B0F5C07F24D141
:101A900010B54C1E08F0D3FB08F0B3FDFFF7D6F9E4
:101AA0002B4A136F23F4704343EA043313670AF09D
:101AB00017F9284BD3F8843013F0100FF9D1254BC8
:101AC000D3F88410C1F38111C1F1020108F08EFD39
:101AD00000F058F8FFF716FD10BD7047B0F5607FB5
:101AE0001FD11D4BD3F8FC2012F0807206D018468F
:101AF000D3F8FC3023F08073C0F8FC30013914486F
:101B0000D0F8803023F0300343EA0113C0F880306E
:101B1000E2B1114AD2F8FC3043F08073C2F8FC30D5
:101B20007047704701390A4AD2F8903023F0F853D1
:101B300043EA0163C2F8903070470139044A136FD9
:101B400023F4806343EA812313677047704700BF23
:101B5000008000500040005000ED00E008B5012179
:101B6000022000F0F3F84FF42070FFF745FC044B1F
:101B7000187008F064FB08F044FDFFF767F908BD32
:101B800036EC032008B54FF4C07008F05FFB054B3E
:101B9000984205D902214FF42070FFF76DFF08BD70
:101BA0000121F8E780F0FA0210B504460AF098F82F
:101BB0000F4BD3F8843013F0100FF9D10C4BD3F83E
:101BC0008410C1F38111C1F1020108F00FFD012160
:101BD000002000F001F924B1FFF7D4FFFFF792FCD9
:101BE00010BD044B19784FF42070FFF745FFF5E75F
:101BF0000040005036EC032070B50446FFF7D2FADF
:101C00000546364B4FF4C0225A6603F598335B689D
:101C1000012B29D08020FFF785FC05282DD025F049
:101C200040752F4B9C422FD02E4B9C422FD00AF058
:101C300031F8064684422DD82B4BDB6813F0060F93
:101C4000FAD1294B9A689D609B686B4013F4F81F8A
:101C500025D0254B9A6034468020FFF763FC052889
:101C600021D0B44235D970BD204B01225A60204B9F
:101C70005B6813F0020FFAD1CCE708F0E0FA08F045
:101C8000C0FCFFF7E3F8CAE745F00075CFE745F081
:101C90008075CCE70121204600F09EF8CCE7204675
:101CA000FEF74AFDD8E70AF01BF8124BD3F8843050
:101CB00013F0100FF9D10F4BD3F88410C1F3811139
:101CC000C1F1020108F092FCFFF75CFFFFF71AFC7C
:101CD000C7E70121002000F07FF8C4E70090005022
:101CE00040420F0080841E000000015000E00150BF
:101CF00000C001500040005010B50446FFF7AEF898
:101D00000A4B4FF400225A6620F04070084A944271
:101D100006D0084A944206D04FF0B442906010BDFD
:101D200040F00070F8E740F08070F5E70090005058
:101D300040420F0080841E00034AD36E23F030031C
:101D400001790B43D366704700400050F8B5044654
:101D5000204BD3F8843013F0100FF9D11D4BD3F87A
:101D60008430C3F381139C422DD009F099FF0646BD
:101D7000012C11D00AF0B7F80546164F07F50053AD
:101D80004FF000725A66204608F042FC621E4FF483
:101D9000806393403B6706E0012108F027FCE9E7F8
:101DA0000C4BD3F884300B4B5B6E13F0007F05D1E6
:101DB000084BD3F8843013F0200FF1D028460AF0F6
:101DC0008DF8022C00D0F8BD0021304608F00EFC42
:101DD000F9E700BF0040005010B50C46034650B173
:101DE000094A127812B1094A934208D921460220C1
:101DF000FFF7ACFF10BD09F053FF0346F0E72146A3
:101E00000120FFF7A3FFF5E7480D0020005A62020A
:101E100038B52F4B4FF000425A6603F50B235C6C2C
:101E200004F001044AF6CD321A64E8B9294B5B6B21
:101E300013F00103FAD1274A556815F0010539D08E
:101E400002F50052012151601A462249096B11F036
:101E5000010F04D120498A4201D80132F5E71E4919
:101E60008A422FD81D4625E000231A4A126B12F031
:101E7000080F04D0184A934201D80133F5E7164AF7
:101E8000934221D8134B03F500522021916203F5B0
:101E9000805301225A60002300E001330D4A926A08
:101EA00012F0200F02D10C4A9342F6D90A4A93420B
:101EB0000CD8002514B1074B084A1A6409F07EFBC0
:101EC000284638BD0725F5E70725F3E70725F1E79D
:101ED00000900050004009503F420F003254FFFF75
:101EE00010B51A4B4FF000425A6603F50B235C6C99
:101EF00004F001044AF6CD321A6443785B0043F0E3
:101F00000103134AD363134B5B6B13F00B0FFAD12E
:101F1000104A536823F4F873817843EA011353603D
:101F2000C178437943EA012393600179837943EAD5
:101F3000012313610078FFF76BFF14B1054B064ACC
:101F40001A6409F03BFB012010BD00BF0090005057
:101F500000400050004009503254FFFF10B50F28D8
:101F600000D90F20124B5C6E03F580534FF00042F6
:101F70005A6603F50B235A6C02F001024AF6CD3182
:101F800019640C4B5B6B13F0800FFAD109490B6A93
:101F900023F00F0303430B620AB1074A0A64002CC3
:101FA00003DB064B4FF000425A6609F007FB10BDF9
:101FB00000800050004009503254FFFF00A0005044
:101FC00010B5134B5C6E03F580534FF000425A6618
:101FD00003F50B235A6C02F001024AF6CD31196465
:101FE0000C4B5B6B13F0800FFAD10A490B6A23F498
:101FF000F85343EA00230B620AB1074A0A64002C33
:1020000003DB064B4FF000425A6609F0D7FA10BDC9
:1020100000800050004009503254FFFF00A00050E3
:10202000054B984206D0054B984201D000207047DE
:1020300057207047562070470000015B00000A508F
:1020400010B5044608F0E5FA042307E004F58053D0
:1020500004221A6104F500531A610B46591E002B25
:10206000F4D1202323610023E360A36041F2020244
:102070006261A361A3654FF4A0226262E3612362FF
:10208000A362E3626363236504F500520149D164EE
:10209000236310BDFF3F0D03F8B5044615460846FF
:1020A000E1B1A36813F0010F34D06668B0FBF5F01E
:1020B000451E16F001062BD0636D13F0280FFBD1DF
:1020C000A36C13F0030F0FD1A36C13F0010F1BD1FE
:1020D000A36C13F0020F19D1002706E02046FFF78A
:1020E0009FFF08F0B3F8DCE70527204608F091FAD7
:1020F000236923F07F4343EA056323616EB33946C6
:10210000204608F0A5FA28E00927EEE70627ECE7C5
:102110000027EDE76368A36D13F0010F00D06D0099
:10212000A36803F0E003402B1DD017D9602B1ED00D
:10213000802B12D10123400105FB03F3B0FBF3F028
:1021400020380C4A02EAC002636D13F0010FFBD184
:102150002263636D13F0010FFBD1F8BD2BB1202B6F
:10216000FBD10823E7E70623E5E71023E3E7042391
:10217000E1E700BFF8FF7F00F8B504460D461746BB
:102180001E46436823B1616DC1F30B010029FAD1EA
:102190002046FFF755FF636923F44C5323F00F03E8
:1021A0006A7B1343EA8913432A8A13436361A36852
:1021B00023F0804323F0E2032A7B13432A7E134358
:1021C0006A691343A360AB681BB9A36843F000437B
:1021D000A360EB69002B69D0A2687B4911401A7A91
:1021E00041EA82519A7A41EA42419A8802F4C04215
:1021F00011435A7841EA82015A7B41EAC2019A7B33
:1022000041EA02119B7841EA8321A160E2686F4BA9
:102210001340EA6911690B4351690B43917943EA11
:102220008123D27943EA4223E360EB691B78012BD7
:1022300001D0032B03D1E36843F00403E360EB69AF
:102240001B78023BDBB2012B67D9614B9C427CD0EF
:10225000604B9C4277D04FF0FF335B0103F1A0430A
:1022600003F5703342F2944202219950EB695A7A95
:1022700004F580539A62EB695B7A1BB1E36843F41F
:102280000063E360EB69DB7A4BB1E36843F400433E
:10229000E3604F4B9C425AD04E4B9C425ED0636AE7
:1022A00023F00303EA69D27B134363623FB197F8DB
:1022B0002030002B5AD004F5805301221A62DEB17F
:1022C0002B7E23B104F580534FF400429A65404BB6
:1022D0009C425CD03F4B9C4257D0A36D23F4F953F2
:1022E00023F01E0396F821201343728C1343A36539
:1022F00004F5805301229A6504F5805301225A6047
:10230000AA68002A5BD12978204608F0A1F9A36CBD
:10231000DB4313F4405FFAD1F8BD2D4B9C4210D043
:102320002C4B9C420BD04FF0FF335B0103F1A043D9
:1023300003F5703341F294420221995096E701234C
:10234000F3E70023F1E7012387E7002385E7EB6943
:102350001B7B03F00F03204A53679DE7EB691B7B50
:1023600003F00F031C4AC2F8803098E7E36923F0BA
:10237000090397F82220134397F82120134343F0D1
:10238000010304F58052D36199E7012300E00023A3
:1023900096F82120102A0AD8104A0121D154728CB3
:1023A000B2F5006F07D80E4A0121D15495E70B4AC8
:1023B0000221D154F3E70A4A0221D1548DE769681A
:1023C0002046FFF769FE9EE7E39BBDFFFFF9F0871C
:1023D0000000015B00000A5000900350500D0020E7
:1023E0004C0D002070B504460D460E69436823B1BC
:1023F000636DC3F30B03002BFAD12046FFF720FED9
:10240000236923F087036A7B1343AA7B134343F0BA
:10241000800323611EB3236923F0F8032A69117F27
:1024200043EAC113117943EA4113517A43EA011394
:1024300011780B43D27B43EA82132361E36823F0D4
:10244000F04323F470232A6951690B4391690B43CC
:10245000117B43EA8123527B43EAC233E360A368E2
:1024600023F00303EA7B134343F00103A3603EB36D
:10247000A3682A69528802F4C0421343A360A36888
:102480002A69527943EA8223A360636A23F477239B
:1024900023F4EE6329698A79120102F07002134372
:1024A000CA79120202F4E06213430A7A120302F4B8
:1024B000E04213434A7F120402F470221343636222
:1024C000636923F00F032A7B13436361A6B12B6971
:1024D0005B89A3612B695A7B2AB11C4A94421AD0AA
:1024E0001B4B9C421DD02B69DA7B2AB1174A9442C0
:1024F0001FD0174B9C4222D0AA6869682046FFF77C
:10250000CBFD2978204608F0A3F8A36CDB4313F435
:10251000405FFAD170BD9B7B03F00F030D4A5367F8
:10252000DEE72B699B7B03F00F030A4AC2F8803079
:10253000D9E71B7C03F00F03064A1367D9E72B6921
:102540001B7C03F00F03034AD367D5E70000015B50
:1025500000000A5000900350F8B504460D461E4690
:1025600017463AB1FBB101228A4000EB4001090154
:102570001D4B5A50072D1ED8A90004EB44031B0124
:1025800007FA01F20F2000FA01F11848184408F088
:102590009AF83FB9FEB10122AA4004EB4404240199
:1025A000114B1A51F8BD01228A4000EB400109018C
:1025B0000F4B5A50DEE7A5F108039B0004EB440CD7
:1025C0004FEA0C1C07FA03F20F21994009486044B6
:1025D00008F079F8DDE70122AA4004EB4404240165
:1025E000034B1A51DEE700BF40D0035034C0035004
:1025F00040E003503CC0035010B5152008F093F89C
:10260000074B00245C65FF229A625C602146202013
:10261000FEF75AFF21462120FEF756FF10BD00BFEE
:102620000000045029B9044A012303FA00F01060A5
:102630007047024AF8E700BF4010045040200450A1
:1026400010B5044601212020FEF73EFF0121212084
:10265000FEF73AFF114B01225A60227812069A6067
:102660006178A27842EA01429A61FF229A620022CE
:102670009A631A644FF000425A6503F500534FF015
:10268000FF321A65152000F08BFBE178152008F069
:1026900052F8152008F04BF810BD00BF00000450A0
:1026A00070B50C46C3B201259D40214901F5005388
:1026B0001D65830003F1A04303F5882326685E604F
:1026C000637B00EB400C01EB0C1CCCF8603094F801
:1026D0000AE0E37A1B0543EA0E4394F80CE043EA70
:1026E0004E53CCF85C3022F00302CCF8702009F095
:1026F00003FC104B5D65237A0BB10E4B1D64637AAE
:102700000BB10C4B9D632379A27942EA0342084B3B
:1027100003F500518A6194F805C0E27942EA0C425F
:1027200003F58054A2614D639D6409F0E0FB70BD28
:10273000000004500010045010B5C0B201248440C1
:1027400009F0DAFB044B5A6D22EA04025A659C62D6
:1027500009F0CDFB10BD00BF0000045010B5C0B2A1
:102760000124844009F0C8FB084BDB6A234205D1F1
:10277000064B5B6B9C4306D0002400E0002409F06C
:10278000B6FB204610BD0124F9E700BF000004504D
:1027900070B50446C3B201259D4009F0ADFB084B5E
:1027A0005E6B04EB440403EB04135C6E09F09FFBC7
:1027B000354203D1C4F30A10013070BD0020FCE79C
:1027C00000000450074B4FF480325A6603F5E623AD
:1027D0009B69C3F38512827003F03F0242701B0BAA
:1027E000037070470090005038B5044608F019FF98
:1027F000864640B9054DA446BCE80F000FC59CE8CD
:10280000030085E80300704638BD00BF540D00206A
:1028100047F6FF739A427FD002297FD870B5414BAB
:1028200013F801E0BEF1010F01D9002070BD3E4B4D
:1028300003EBCE0191F802C0604613F83E30012B45
:1028400026D0394B03EBCE035C68002C68D0B4F97A
:102850000030934204DBB4F90230934200DC1346AB
:10286000A288FF2A2CD000212826C8221D46D21A71
:1028700092FBF6F20A4412B22B4B03EBCE0393F811
:1028800001E0964501DD002A2FDA0EF1FF322CE03F
:10289000CB78A3EB0C0300249C420ED2191BA3EBB4
:1028A0005101214800EBCE00406830F91100904200
:1028B00001DC0C46F0E74B1EEEE76344D8B2B5E707
:1028C000B4F90620B4F908600121CFE75C33174959
:1028D000A1FB03139B09013212B2164696450FDD88
:1028E00004EBC201898899420AD304EBC2018B68C8
:1028F000B1F9061001FB0533002BE7DA0023E5E709
:10290000013E04EBC604A2889A4200D31A469445BD
:1029100000D81046C0B289E7FF20704700207047FA
:10292000002083E764BF0008540D0020D34D6210DF
:1029300002296FD83A4B5B5C012B6DD8394911F8ED
:10294000331001292AD010B4364901EBC3014C6879
:10295000002C63D0201D334901EBC30189789142DB
:1029600034D2304901EBC301C978914233D92D49A2
:1029700001EBC30393F801C00CF1FF3C5FFA8CFC40
:10298000A388FF2B2AD00023634529D2591C30F895
:102990003110914224D30133DBB2F5E7214901EB39
:1029A000C301C978914200D20A461E4800EBC30019
:1029B0008078121AD2B2091A8A4200DD002219491F
:1029C00001EBC3035B6833F912007047B4F90200EE
:1029D0005DF8044B7047B4F90000F9E70123D3E731
:1029E0004FF47A7101FB02F200EBC3004368D31A83
:1029F000B0F9022002EBD27103EB610393FBF2F317
:102A0000B4F900009842E3DBB4F902009842DFDC3D
:102A100018B2DDE704487047034870470248D7E71B
:102A200064BF0008540D00200080FFFF08B5034874
:102A3000FFF7DAFE012008F0F8FD08BD68BF0008C6
:102A400030B583B00446694608F0EDFD00B1FEE7FD
:102A50009DF80030134A1278934217D00C2B06D100
:102A600064251049204608F0CBFD28B1FEE720463A
:102A700002F0CCFB0546F4E72946204608F0A7FD06
:102A800000B1FEE7074B1B78042B01D003B030BD2B
:102A90006946204608F0C7FD9DF80020014B1A70DA
:102AA000F4E700BFBCEC032010B58AB0EC46194C2B
:102AB0000FCCACE80F000FCCACE80F0094E803009B
:102AC0008CE80300144BD3F84C3113F4002F05D0DD
:102AD000124B1C88FF2C05D98C2403E00E4BD3F835
:102AE0005041E4B28DF81940FEF776FF241803D464
:102AF000FF2C02DDFF2400E000248DF81840084878
:102B0000FDF720FE6846FEF795FE3220FEF76AFFCD
:102B10000AB010BD90CE00080080E00F0001E00F69
:102B2000C017530208B50248FFF766F808BD00BF9A
:102B300000B4C40408B50248FFF7DEF808BD00BFC2
:102B4000C0EA210108B5034809F0E2F90020FEF7C8
:102B50004FFF08BDC4CE000810B5FEF7FFFF4D4C77
:102B6000236F23F0070343F0030323670020FFF7DD
:102B70001BF8236F23F474432367474BD3F8FC10EF
:102B800011F0807106D01A46D3F8FC3023F0807320
:102B9000C2F8FC303F4BD3F8802022F0030242F011
:102BA0000102C3F8802003F580530022C3F880207F
:102BB00031B1394AD2F8FC3043F08073C2F8FC30AE
:102BC000344CD4F8203123F0070343F00203C4F857
:102BD0002031D4F8283123F0070343F00203C4F86E
:102BE0002831D4F8803123F0030343F00103C4F803
:102BF0008031D4F8403123F0030343F00103C4F8DB
:102C00004031D4F8603123F0030343F00103C4F8EA
:102C10006031D4F8403223F0030343F00103C4F8D9
:102C20004032D4F8003223F0070343F00103C4F824
:102C30000032D4F8083223F0070343F00103C4F84C
:102C40000832D4F8703223F0030343F00103C4F8D0
:102C50007032D4F8203223F0070343F00103C4F8A4
:102C60002032FEF7CDFD4FF0E022136943F004035C
:102C70001361D4F8603223F0070343F00103C4F872
:102C80006032D4F8943223F0070343F00103C4F810
:102C9000943210BD0080005000ED00E008B50748F8
:102CA00009F036F9FFF700FFFFF73CFFFFF742FF9F
:102CB000FFF748FFFFF750FF002008BDC0CE000817
:102CC00000B583B0094B93E803000090ADF8041001
:102CD000090C8DF806106846FFF702F90920FFF786
:102CE0003DF9002003B05DF804FB00BFB8CE00083A
:102CF00010B582B0074A536F43F0010353670024B5
:102D000000948DF804406846FFF716F8204602B09C
:102D100010BD00BF00400050002808DB0901C9B207
:102D200000F1604000F5614080F80013704700F04A
:102D30000F000901C9B2014B1954704714ED00E0AE
:102D4000002807DB00F01F02400901239340024ADC
:102D500042F82030704700BF00E100E000280CDBA3
:102D600000F01F024009012393402030034A42F83B
:102D70002030BFF34F8FBFF36F8F704700E100E04B
:102D80004211064B53F8223000F01F0023FA00F0E6
:102D900080F0010000F00100704700BF00E100E09A
:102DA000002808DB00F01F02400901239340603037
:102DB000014A42F82030704700E100E010B509F008
:102DC0009BF80B4B1B783BB9094B01221A7009F099
:102DD0008EF86FF0040408E009F089F807E0052197
:102DE000204607F0A8FC013464B24B2CF7DD10BD7F
:102DF00037EC032010B5044609F075F8024B1C604F
:102E000009F06CF8002010BD6C0D002010B509F021
:102E10006AF8034B1C6809F061F8204610BD00BF3A
:102E20006C0D00202DE9F0418EB007460E46144689
:102E30001D461368D3F8008091F83130002B48D03C
:102E40000DF1180CDFF830E2BEE80F00ACE80F001F
:102E50009EE80F008CE80F0000230093019302937B
:102E6000039304930593A3680893237B012B3DD020
:102E7000022B3ED14FF44073ADF82630607B07F053
:102E800092FCADF82800CDF834D001238DF806303F
:102E9000A37B022B04D0032B02D0012B00D00023F4
:102EA0008DF80030B36B6E4A1A60B36B6D4A5A608E
:102EB000B36B00229A60B36B6B4ADA6032462946E4
:102EC000384600F0AFFA0746A8B138460EB0BDE864
:102ED000F0810DF1180CDFF8A4E1BEE80F00ACE8BA
:102EE0000F009EE80F008CE80F00B5E74FF4007369
:102EF000C2E70023C0E72369C5F8A430237E85F824
:102F0000AB30E37D85F8AA30A37D85F8A930637DD9
:102F100085F8A830A37E85F8AD30637E85F8AC30A7
:102F2000237F85F8AF30E37E85F8AE302368C5F89F
:102F3000A0304E4808F0ECFF01230422A17D607D03
:102F4000FFF70AFB01230222217EE07DFFF704FB4D
:102F5000002385F8B030206908F0DAFF96F83130A8
:102F6000002B5ED006A9404607F09DFB95F8B030D7
:102F700043F0040385F8B030227D3D4B03EB421251
:102F80001421C2F89414617DA07D227D41EA0041A4
:102F900003EB4212C2F8AC14E27D207E217D42EAAE
:102FA0000042253103EB41135A60A37B012B3DD036
:102FB000032B3BD0A37B023BDBB2012B43D995F81B
:102FC000B03013F0010F0CD0627EA17E237D42EA67
:102FD00001425B0103F1A04303F5703341F29C41D0
:102FE0005A5095F8B03013F0010F11D0227D204BCC
:102FF00003EB421241F2944102205050E27E207FC6
:10300000217D42EA004203EB411303F5A5531A6008
:1030100008F50053174ADA640521404607F018FB0B
:1030200053E706A9404607F044FBA5E795F8B03002
:1030300043F0010385F8B03000230222A17E607EB8
:10304000FFF78AFAB6E795F8B03043F0020385F847
:10305000B03000230422217FE07EFFF77DFAAEE747
:10306000CFA700086FA80008E9A70008C8CE00088D
:1030700000C00350FF3F0D03DCCE0008FCCE00086B
:1030800030B583B0007D104B00EB400203EB021221
:10309000D56E00EB400203EB02131C6F0DF107012C
:1030A00008F0B2FE9DF807304BB904F00204074B5C
:1030B0009D4201D0002003E024B1002000E0012067
:1030C00003B030BD0120FBE70000045038EC0320C2
:1030D000037D0E4A03EB430102EB0111C96E03EBC2
:1030E000430302EB0312136F03F00203084A9142F9
:1030F00001D0002070470BB900207047036A006DB3
:10310000984214BF00200120704700BF0000045007
:1031100038EC032030B583B003464169026902F1FF
:10312000FF3CC5684C6F01F17C020020C86750600D
:103130009060D060B1F87C006CF30E10A1F87C00B8
:1031400091F87E0040F0100081F87E0091F87F0039
:1031500040F0300081F87F00C1F88050C1F8844011
:10316000012081F88C0091F878000093024B6431C3
:10317000FDF75EFD03B030BD13AC00082DE9F04152
:1031800084B0044600F1380600F118080025856374
:103190007560B560F56090F83A3043F0100380F840
:1031A0003A3090F83B3043F0030380F83B30494F0E
:1031B000C7630764007DFDF767FDA5637560B560B3
:1031C000F56094F83A3043F0100384F83A3094F8FC
:1031D0003B3043F0030384F83B30E7632764207DF2
:1031E00000EB40031B0103F1A04303F58023DB6EDA
:1031F000BB4219D00DF10F0108F006FE9DF80F300B
:10320000ABB194F844306FF3410384F84430009438
:10321000314B32462146207DFDF70AFD207DFDF72A
:1032200053FD04B0BDE8F081FDF74EFDF9E72046FF
:1032300007F04EFB054602A9207D08F009FE029B1F
:10324000591E20690023A361E36123626362228B1C
:1032500061F30E122283A27E42F01002A276E27E79
:1032600042F00302E276E0612562227D1B4902EB17
:10327000420001EB0010056FC5F3400594F824707F
:1032800065F3410784F82470A57E63F30415A576E1
:10329000056FF8B265F3000084F8240002EB4202E7
:1032A00001EB02110A6F9210616A62F39F01616281
:1032B00094F8442042F0020284F84420D2B263F32E
:1032C000000284F844204FEAA808636C68F39F0367
:1032D00063649CE738EC03207BAA000800000450DC
:1032E000F0B589B004460E46007DFDF7CDFC0DF12A
:1032F0001F01207D08F088FD204607F0E9FA054609
:10330000236D83424AD2A26C934216D0238DC3F31D
:103310000A12324462F30E132385236D1E44266580
:10332000A26CE36C13449E426FD0236DAB426ED00F
:10333000207DFDF7C9FC09B0F0BD701E276904F1BE
:1033400028030021A162E16221636163B4F828C00F
:1033500060F30E1CA4F828C094F82A0040F0100076
:1033600084F82A0094F82B0040F0030084F82B0026
:10337000E762226394F82A2061F3041284F82A2079
:1033800023F00302237D42F0020203EB43031B01FF
:1033900003F1A04303F580231A67BEE79DF81F30B1
:1033A000B3B9227D1D4802EB420300EB0313596EB3
:1033B000C1F30A1131445B6E23F4FF4323F0700321
:1033C00043EA011302EB420200EB02104366A4E75A
:1033D0000494134B0393002302930196012300935B
:1033E000236902462168207D06F0E2FE237D0B4A18
:1033F00003EB430102EB0111496E21F4801103EB51
:10340000430302EB0312516687E722658DE7012330
:1034100084F854302046FFF7B1FE89E700000450DD
:103420007BAA000870B588B006460C461546A02257
:103430000021204607F072FFA446AE46BEE80F000A
:10344000ACE80F00DEF80030CCF8003004F1640C7A
:1034500005F1140EBEE80F00ACE80F00DEF80030F6
:10346000CCF80030AB6AA364EA6AE264236595F89D
:10347000302084F8952095F8332084F89620C4F8FD
:103480009830012384F89C3084F85430AB6B236669
:103490003460374B7360374BB360374BF360374B57
:1034A0007361374BB361374B3361FDF78FFB10B15D
:1034B000354A904253D1002107A8FDF705FB0028AB
:1034C0004FD19DF81C302375002107A8FDF7FCFAA9
:1034D00000283FD19DF81C3084F87830207DFDF71E
:1034E000D3FB002840D1E36C0494284A03920022C5
:1034F00002920193012300932369A26C2168207D2D
:1035000006F056FE90BB237D03EB43031B0103F142
:10351000A04303F5802342F264024FF480119950D6
:10352000AB6B93F91000FFF73BFCAB6B93F910000A
:1035300007F0FDF804F1900006F01CFE3046FFF79E
:1035400059FC2046FFF71AFE207DFDF7BDFB48B170
:10355000102007E0207DFDF70FFB102002E0102077
:1035600000E0102008B070BD1020FBE71020F9E744
:1035700021AA000835AA0008DBAB0008C5A800088E
:10358000CBA8000857AC0008038000F07BAA000815
:103590000346064A10680344054A934202D8034A88
:1035A000136070474FF0FF30704700BFD4EC03202A
:1035B00000000420BFF34F8F0549CA6802F4E0629F
:1035C000044B1343CB60BFF34F8F00BFFDE700BF39
:1035D00000ED00E00400FA05BFF35F8F074B5A6A65
:1035E00022F480325A62D3F8942022F00102C3F808
:1035F0009420BFF34F8FBFF36F8F704700ED00E053
:1036000070B5FFF7E9FFA0220021214807F052FB27
:10361000204B21498B4206D021F01F02203AB2F103
:10362000005F0FD300E01D4A1D4D286842F00102E3
:103630001C4CC4F898001C4EC4F89C60C4F8A02030
:10364000013028608B4210D01F3323F01F0343F05A
:103650000303134802681349C1F89820C1F89C304D
:10366000124BC1F8A03001320260BFF35F8F0D4BE7
:103670000522C3F894205A6A42F480325A62BFF39A
:103680004F8FBFF36F8FBFF34F8FBFF36F8F70BD3F
:1036900090ED00E0A0EC032080EC0320000004206B
:1036A000700D002000ED00E003000020E1FF03208A
:1036B00000B583B001A8FFF785F89DF80530012B10
:1036C00002D003B05DF804FB9DF80430002BF8D164
:1036D0000A4B596E03F580534FF480125A66084A1C
:1036E000536B23F0E05343F04063536311F4801FA6
:1036F000E7D1044B4FF480125A66E2E70080005095
:103700000040005A00A0005010B5002000F03EF923
:103710000446064801F03AF91CB1204600F082FB4D
:1037200010BD034801F032F9FEE700BF1CCF0008CE
:1037300038CF00080023062073B1704754B224B973
:10374000013353B15DF8044B70470228F8D0086884
:103750000A4908601046F3E710B4094A52F82310EA
:103760000A7A022AEAD9032AEAD1441EE4B2012CD9
:10377000E6D90868014908601046E1E7740D0020A9
:10378000E8EC032030B5A3B020252A4600211AA872
:1037900007F0C4FD2A4B1A9301248DF86C404FF4B6
:1037A000E1331C9302238DF87530264B1E938DF860
:1037B0007C4008238DF87E3009238DF8803000216D
:1037C000159116911791189119914FF48013159333
:1037D0001D4B1993109111911291139114911B4B40
:1037E00010931B4B14933C2201A807F097FD0DF199
:1037F000040E0DF1540CBCE80F00AEE80F00DCF82D
:103800000030CEF800300DF1180E0DF1400CBCE880
:103810000F00AEE80F00DCF80030CEF800300D4BA2
:103820000B930C958DF835408DF836400A4B0F936D
:103830000A4B1AAA01A90A48FFF7F4FA23B030BDCF
:10384000D0CE0008CCCE00083C000A500100100089
:1038500044000A50780D0020FCEC0320980D002055
:103860004C0E002008B5024807F009F808BD00BF5B
:103870004C0E002008B5024807F001F808BD00BF53
:103880004C0E002010B58EB02422002105A807F0B0
:1038900045FD334B0593334B1B88ADF82430324B39
:1038A0001B88ADF82630314B1B680B93304B1B68DF
:1038B0000C93304A05A9304801F07CFA00B1FEE7CC
:1038C0002E4B1C682E4A21462B4B186801F022FB18
:1038D00000B1FEE74CB12146274B186807F0DBFD2D
:1038E00001464FF6FF73984206D10021224B18681B
:1038F00006F0FFFE38B1FEE71F4B186801F06EFCC2
:103900000028F2D0FEE71F491B4B186801F094FC19
:1039100000B1FEE76FF0C00240F2FF33CDE90023B3
:103920004FF0FF324FF0FF331349086807F031FEC4
:1039300000B1FEE7144B1B88ADF81030ADF80C3029
:1039400004A90D4B186807F00CFE00B1FEE703A9AF
:10395000094B186807F01BFE00B1FEE70EB010BD62
:103960000FAE000846D7000844D700084CD700081F
:1039700048D70008F1AD000810ED0320D8EC032073
:10398000FBAD000807001100D8D4000882B0054B39
:10399000019302AB03EB800050F8043C186802B0BE
:1039A000704700BF10ED032010B40C78DCB190F824
:1039B00000C05FFA8CFC12F80C201A7002780132F9
:1039C0000A4B83FB024313449B11C3EB0313A2EB8B
:1039D000C303DBB203700B78013BDBB20B70012039
:1039E0005DF8044B70470020FAE700BF898888889B
:1039F00090F800C05FFA8CFC02F80C3002780132BB
:103A0000074B83FB02C313449B11C3EB0313A2EBCD
:103A1000C303DBB203700B780133DBB20B7070476A
:103A200089888888314B1B78002B5ED0304B5B6BCC
:103A300013F0010F59D030B583B02E4A136801330B
:103A400013602D4CD4E9002312F5006043F100010E
:103A5000C4E90001294B8022C3F8A0200023009371
:103A600002E0009B01330093009BB3F5167FF8DB67
:103A7000234B8022C3F8A020224B1B78DBB2FF2B04
:103A80001FD108F030FA05460DF107031E4A1F4901
:103A90001F48FFF789FF0446284608F01FFA04B3C1
:103AA0009DF80720174B1A701A4B03EB021323F0F3
:103AB00003030F4A1367012317494B63936403B051
:103AC00030BD08F010FA04460E4D2B78134A144905
:103AD0001448FFF78DFF204608F000FAFF232B70F3
:103AE000CFE7024B00221A70E9E770473BEC032056
:103AF00000000450F02500200808002000D00350EA
:103B000000E00350BFED03207026002040EC0320AE
:103B100042EC0320680E00200020045060270020A3
:103B200046EC032047EC03200246F0B10F490B8816
:103B3000C3F3072303700B88437004234FF0000C7A
:103B400003E0D15C81EA0C0C0133092BF9D940F276
:103B5000F673002102E0D05C4140013340F2FE7078
:103B60008342F8D982F802C0D17070471AEC032062
:103B700030B583B01E4B1B781BB10024204603B028
:103B800030BD08F0B0F905460DF10703194A1A498E
:103B90001A48FFF709FF0446284608F09FF9002C51
:103BA000ECD09DF80710164B1970164B8022C3F805
:103BB000A0200023009302E0009B01330093009BB0
:103BC000092BF9DD104B114A5A60114A0023136684
:103BD0004FF48033D3650F4B03EB011323F0030342
:103BE000136701230C494B639364014A1370C5E7C3
:103BF0003BEC03207026002040EC032042EC032025
:103C0000BFED032000E003500040045001000F000E
:103C100000000450680E00200020045038B5012137
:103C20002020FDF751FC204B5B6813F0010F02D1FF
:103C30001D4B01225A601C4B01229A6200212FE089
:103C40001A4C04EBC1241A484FEA011C00EB011383
:103C5000002240F80C205A609A60DA6030F80CE0DC
:103C600040F2FF7565F30E1E20F80CE0987840F0E6
:103C700010009870D87840F03000D8705C6003F184
:103C800008000C4C9C609C7862F304149C701B7BB5
:103C900062F341030371DBB262F30003037101318C
:103CA0007729CDD938BD00BF00000450D8270020A7
:103CB000680E00204400015B70B58EB00024444BB8
:103CC0001C70444B1C70444B1C70444B1C70444B88
:103CD0001C70444B1C70444B1C70444B1C70444B78
:103CE0001C70444B1C70444B1C70444B1C704FF4B4
:103CF00070322146424807F011FB424B4DF6EB6211
:103D00001A80414B1C80234608E0404AD354324974
:103D10000A780132D2B20A700133DBB2772BF4D9C0
:103D20002B4B78221A7001213A20FDF7CDFB01219F
:103D30005620FDF7C9FB0023042203211846FEF795
:103D40000BFC0023042205211846FEF705FC002386
:103D5000022204211846FEF7FFFB0123042207215B
:103D60000220FEF7F9FB2A4C4FF4A023C4F8AC3430
:103D70004FF48023C4F8A4344FF44033C4F8A8347B
:103D80001C23C4F8943406AE20220021304607F0EC
:103D9000C5FA01238DF81D300DF1040C1D4D0FCD1A
:103DA000ACE80F002B68CCF800301B4B0393059652
:103DB00001A91A4806F083FC04F580548023C4F856
:103DC000A030FFF72BFF164B00221A600EB070BD1B
:103DD00047EC032048EC032046EC032044EC03208E
:103DE00045EC032043EC032041EC032042EC03208C
:103DF00040EC03203EEC03203FEC03203DEC03208D
:103E0000D82700201AEC032018EC0320602700209C
:103E100000C00350E8D60008405DC6000000015B0A
:103E2000E825002070B586B004460023029302E026
:103E3000029B01330293029A3F4B9A42F8DD3F48BE
:103E400000F0A4FD3E4800F0A1FD3E4B196805239B
:103E500000933D4B4FF4FA623C4800F0EBFA002C23
:103E600062D0FFF729FF01221146204607F0C2FA6F
:103E7000204607F035FC00285AD10125009525235E
:103E8000334A3449204607F061FC334EB38AADF81B
:103E9000143005A9204607F07AFBB369049304A9FE
:103EA000204607F0E7FB4FF48053ADF80E300DF1DC
:103EB0000E022A49204607F0F5FB40F2E471204645
:103EC00007F0F4FB2A460021204607F0F3FB40F2FE
:103ED00004420023CDE90023204607F05AFB0022CC
:103EE0001146204607F08BFA07F0F8FB1C4B1860D0
:103EF0001A681C4B1A60204607F0F5FA0546204662
:103F000007F0EFFA0446184800F040FDF0234FF4A4
:103F100000627821154800F08DFA2246294614489F
:103F200000F088FA06B070BD124800F02FFDF9E7E6
:103F3000114800F02BFDA0E79F860100DCD40008AB
:103F400014D5000814ED0320008793035CD5000806
:103F5000D6BE898E55555500E8D60008E8150020D4
:103F6000EC250020E8250020DCD5000820D600083C
:103F700040D60008A0D50008BCD500082DE9704344
:103F8000C0B006463E4CD4E9008948EA020043EA44
:103F90000901C4E9000140F204431A4255D0394BEB
:103FA0001B78002B37D0384B1B78DBB2374AD45CF8
:103FB000374D05EBC42540F2FC72291D304607F051
:103FC00073FB0646002840D010F0030340D140F2B6
:103FD000FB739E424AD907F086FF05462A490A78B4
:103FE00001322C4B83FB020313449B11C3EB0313DD
:103FF000A2EBC303DBB20B70224A1378013BDBB2A6
:1040000013702346244A25492548FFF7F1FC28462A
:1040100007F064FF19E0304607F04AFB054611E05F
:104020002C46B5F5807F28BF4FF48074A4B2224699
:104030006946304607F038FB2D1BADB2194B1A68A4
:1040400014441C60B5F57A7FEAD840B0BDE87083AF
:10405000C3F104031FFA83F80430424600212844C8
:1040600007F05CF9B0441FFA88F6B0E7301DC6F5DA
:10407000FF6204320021284407F050F9ABE700BF8B
:104080000008002046EC032048EC032060270020B5
:10409000D827002089888888E826002043EC032060
:1040A00044EC0320F425002053B94AB9002908BF85
:1040B00000281CBF4FF0FF314FF0FF3000F082B9F5
:1040C000ADF1080C6DE904CE00F006F8DDF804E06F
:1040D000DDE9022304B070472DE9F04F099D0C463D
:1040E000002B4DD18A420F4684469646B2FA82F39F
:1040F00060D94BB102FA03FEC3F120029F4000FADF
:1041000003FC20FA02F217434FEA1E461FFA8EF410
:104110004FEA1C42B7FBF6F106FB117701FB04F0F6
:1041200042EA0742904208D91EEB020201F1FF3732
:1041300002D2904200F231813946121A1FFA8CFCE9
:10414000B2FBF6F006FB102200FB04F44CEA024C32
:10415000644508D91EEB0C0C00F1FF3202D2644515
:1041600000F21E81104640EA0140ACEB040C002135
:1041700025B12CFA03F30022C5E90032BDE8F08F27
:104180008B4205D90DB1C5E9000100210846F5E7CC
:10419000B3FA83F100294DD1A342C0F0F3809042DD
:1041A00080F0F080064623460846002DE6D0C5E99B
:1041B0000063E3E7002B40F0A3808A1A4FEA1E4712
:1041C0001FFA8EF60121B2FBF7F407FB14204FEA29
:1041D0001C4242EA004206FB04F090420FD91EEB5B
:1041E000020204F1FF382CBF4FF001094FF0000923
:1041F000904203D9B9F1000F00F0CC804446121A66
:104200001FFA8CFCB2FBF7F007FB102200FB06F64E
:104210004CEA024C664508D91EEB0C0C00F1FF324B
:1042200002D2664500F2B3801046ACEB060C40EAC1
:1042300004409DE7C1F120068B4004FA01FE22FAFA
:1042400006F720FA06FCF4408A401F434EEA0C03AE
:1042500000FA01FE4FEA17484FEA13491FFA87FC9C
:10426000B4FBF8F008FB104449EA044400FB0CF9E5
:10427000A1450ED93C1900F1FF3A2CBF4FF0010BBC
:104280004FF0000BA14503D9BBF1000F00F08B806C
:104290005046A4EB09041FFA83F9B4FBF8F308FBBA
:1042A000134403FB0CFC49EA0444A44506D93C1919
:1042B00003F1FF3801D2A4457BD8434643EA0040CE
:1042C000A4EB0C04A0FB02984445CC46434602D321
:1042D00006D1CE4504D20138B9EB020C68EB0703D6
:1042E000002D6CD0BEEB0C0264EB030422FA01F348
:1042F00004FA06F6CC4000211E43C5E900643DE700
:1043000002FA03FEC3F1200104FA03F200FA03FCEF
:10431000CC404FEA1E4720FA01F11FFA8EF6B4FB9B
:10432000F7F00A4307FB1044110C41EA044100FB7B
:1043300006F48C420ED91EEB010100F1FF382CBFB0
:104340004FF001094FF000098C4202D9B9F1000F7A
:104350002CD04046091B92B2B1FBF7F407FB1411B5
:1043600042EA014204FB06F1914207D91EEB020228
:1043700004F1FF3801D291421ED84446521A44EA51
:10438000004120E7861A64EB030301200DE7F444A3
:1043900002384AE7023C724431E702397244CCE603
:1043A000F4440238DFE602383C4472E702387144D4
:1043B000D0E7023B3C4481E7023C7244DEE72946F9
:1043C000DCE600BF704700BF08B5064B044613B1DA
:1043D0000021AFF30080044B1B6803B198472046CF
:1043E00006F050FA0000000010E9032070B50D4DF2
:1043F00000260D4C641BA410A64209D10B4D0026CB
:104400000B4C07F09DFD641BA410A64205D170BDA6
:1044100055F8043B01369847EEE755F8043B013662
:104420009847F2E7C8ED0320C8ED0320C8ED03204C
:10443000CCED03200FB407B5064904AB086853F868
:10444000042B8168019300F007F803B05DF804EBDA
:1044500004B0704718ED03202DE9F04F0D469DB0D4
:1044600014469846064618B1036A0BB900F022FBC1
:104470006B6ED90705D4AB899A0502D4A86D06F0F6
:1044800056FFAB891B0701D52B699BB929463046DE
:1044900000F0FAF870B16B6EDC0704D54FF0FF3016
:1044A0001DB0BDE8F08FAB899805F7D4A86D06F074
:1044B0003FFFF3E70023CDF80C804FF00109DFF850
:1044C000B481099320238DF8293030238DF82A30C8
:1044D00023469A4613F8012B0AB1252AF9D1BAEBE3
:1044E000040B0BD05B4622462946304606F0D8FC2A
:1044F000013000F0A780099A5A4409929AF80030D6
:10450000002B00F09F8000234FF0FF320AF1010AD8
:10451000049307938DF853301A93CDE9052354463D
:104520000522544814F8011B06F07CFE049AD8B901
:10453000D10644BF20238DF85330130744BF2B23EB
:104540008DF853309AF800302A2B15D0079A54462C
:1045500000204FF00A0C214611F8013B303B092B9B
:104560004BD9B0B1079214E0A0EB0803A24609FAB8
:1045700003F313430493D2E7039B191D1B68002B1D
:104580000391BBBF5B4242F0020207930793B8BF9F
:10459000049223782E2B0AD163782A2B32D1039BE5
:1045A00002341A1D1B6843EAE37303920593DFF894
:1045B000D4A003222178504606F034FE38B1A0EB97
:1045C0000A004022049B013482401343049314F8F0
:1045D000011B062228488DF8281006F023FE00282B
:1045E0003FD0264B1BBB039B073323F00703083345
:1045F0000393099B3B4409936AE70CFB02320C4688
:104600000120A8E7002301344FF00A0C1946059356
:10461000204610F8012B303A092A03D9002BC6D0C6
:104620000591C4E70CFB012104460123F0E703AB2D
:104630002A4604A930460093114BAFF30080074689
:10464000781CD6D16B6ED90705D4AB899A0502D4F4
:10465000A86D06F06DFEAB895B063FF51FAF0998AC
:104660001EE703AB2A4604A930460093044B00F032
:1046700061F8E4E704D700080ED700080000000046
:10468000A1AE00080AD7000838B5294B05460C46EC
:10469000186818B1036A0BB900F00CFAB4F90C30C1
:1046A000190722D4DA0607D409222A6043F040030E
:1046B0004FF0FF30A38133E0580712D5616B41B151
:1046C00004F14403994202D0284600F01DFA002369
:1046D0006363A38923F02403A38100236360236918
:1046E0002360A38943F00803A38123694BB9A389FD
:1046F00003F42073B3F5007F03D02146284606F06B
:104700003DFEB4F90C3013F001020AD00022A26081
:1047100062695242A261226942B913F08000C5D198
:1047200038BD990758BF6269A260F4E70020F7E737
:1047300018ED03202DE9FF470F7E914680460C4679
:10474000782F9A460C9E01F1430207D8622F0AD8AF
:10475000002F00F0DD80582F00F0C38004F14206E6
:1047600084F842703AE0A7F16303152BF6D801A153
:1047700051F823F0CD470008E14700085D470008E5
:104780005D4700085D4700085D470008E1470008F5
:104790005D4700085D4700085D4700085D47000869
:1047A000F74800086F480008AF4800085D47000858
:1047B0005D470008194900085D4700086F48000878
:1047C0005D4700085D470008B748000833681A1DB8
:1047D0001B68326004F1420684F842300123A8E0ED
:1047E00031682368081D30601E0601D50D6803E09E
:1047F0005D06FBD5B1F90050002D616878DA2D20F7
:104800000029A16084F843002DDA6D425D480A2337
:104810001646B5FBF3F103FB1157C75D06F8017DA2
:104820002F460D46BB42F4D9082B0BD12368DF0776
:1048300008D5236961689942DEBF302306F8013C40
:1048400006F1FF36921B22614B4603AA21464046E1
:10485000CDF800A006F074FB01306FD14FF0FF30AF
:1048600004B0BDE8F08723F004032360CDE721689E
:104870003368080653F8045B02D4490648BFADB25A
:104880006F2F33603F4814BF0A230823002184F8A8
:1048900043106668002EA660BADB216821F004018F
:1048A0002160002DB4D1002EB2D11646BCE723689A
:1048B00043F02003236078273348236884F8457049
:1048C0001F06316851F8045B02D45F0648BFADB2E1
:1048D0003160D90744BF43F0200323601DB110238A
:1048E000D4E72848E9E7236823F020032360F6E7AC
:1048F00024480A23CDE733682568181D61693060B4
:104900002E061B6801D5196002E06806FBD51980E8
:1049100000231646236197E7336800211A1D326091
:104920001E686268304606F07DFC08B1801B60603E
:1049300063682361002384F8433085E723693246A6
:1049400049464046D047013088D023689B0714D49D
:10495000E068039B9842B8BF184681E701233246BE
:1049600049464046D04701303FF478AF0135E3680F
:1049700003995B1AAB42F1DCEAE7002504F1190662
:10498000F5E700BF15D7000826D70008024B0146FF
:10499000186806F047BB00BF18ED0320002310B5D0
:1049A00004468360818119464366C281082283617F
:1049B000C0E90033C0E904335C3006F0AFFC0D4BB6
:1049C000246263620C4BA3620C4BE3620C4B2363C7
:1049D0000C4B9C4206D003F16802944202D0D033C3
:1049E0009C4205D104F15800BDE8104006F09EBC81
:1049F00010BD00BF5BB200087DB20008B5B2000870
:104A0000D9B20008D8E70320024A0349034806F058
:104A100067BC00BF68ED0320D5B100081CED032082
:104A200041680C4B994210B5044601D006F0D2FB08
:104A3000A168094B994202D0204606F0CBFBE16801
:104A4000064B994204D02046BDE8104006F0C2BB98
:104A500010BD00BFD8E7032040E80320A8E80320EA
:104A600010B50B4B04210B4C0B4A20461A60002258
:104A7000FFF794FF04F1680001220921FFF78EFF80
:104A800004F1D00002221221BDE81040FFF786BFDA
:104A900010E90320D8E70320094A0008014806F07E
:104AA00046BC00BF4AEC0320014806F041BC00BFF1
:104AB0004AEC032010B50446FFF7F0FF236A1BB150
:104AC000BDE81040FFF7F0BF044B2362044B1B68A6
:104AD000002BF5D1FFF7C4FFF2E700BF214A000821
:104AE00010E9032038B50446064D08461146002259
:104AF0002A601A4605F0DFFE431C02D12B6803B181
:104B0000236038BD14E9032038B50546002941D09B
:104B100051F8043C0C1F002BB8BFE41800F02EF92C
:104B20001D4A136833B9636014602846BDE83840F5
:104B300000F02AB9A34208D9206821188B4201BF8E
:104B400019685B6809182160EDE71A465B680BB1CC
:104B5000A342FAD911685018A0420BD12068014431
:104B6000501811608342E0D118685B6808445360B4
:104B70001060DAE702D90C232B60D6E720682118F1
:104B80008B4202BF19685B680918636008BF216027
:104B90005460CAE738BD00BF1CE9032038B50023C4
:104BA000054D044608462B6005F06AFE431C02D101
:104BB0002B6803B1236038BD14E9032070B50F4E94
:104BC0000C460546316811B900F0E4F83060214622
:104BD000284600F0DFF8431C03D14FF0FF34204695
:104BE00070BDC41C24F00304A042F8D0211A28464A
:104BF00000F0D0F80130F2D1EFE700BF18E9032050
:104C00002DE9F041CD1C064625F0030508350C2D95
:104C100038BF0C25002D01DBA94204D90C233360D9
:104C20000020BDE8F081314F00F0A8F83B681C4639
:104C300044BB29463046FFF7C1FF431C044650D110
:104C40003C682146002941D1002C44D023683046DD
:104C500004EB030800F09EF880453CD12168304603
:104C60006D1A2946FFF7AAFF013034D023682B4480
:104C700023603B68002B36D05A68A24229D100221B
:104C80005A600EE02268521B1DD40B2A16D96119F6
:104C9000A342256018BF5960636808BF396062513C
:104CA0004B60304600F070F804F10B00231D20F03B
:104CB0000700C21AB5D01B1AA350B2E7A34262681C
:104CC000DED13A60EDE723466468B1E70C464968F7
:104CD000B8E71346CEE70C233046336000F054F8B3
:104CE0009EE70560DDE75B60FFDE00BF1CE9032097
:104CF00038B50023064D0446084611462B6005F0E2
:104D0000C2FD431C02D12B6803B1236038BD00BF34
:104D100014E9032038B50023054D044608462B60EE
:104D200005F0B6FD431C02D12B6803B1236038BDEA
:104D300014E9032038B50446064D08461146002202
:104D40002A601A4605F0A6FD431C02D12B6803B168
:104D5000236038BD14E9032038B50446064D0846E3
:104D6000114600222A601A4605F096FD431C02D126
:104D70002B6803B1236038BD14E90320014806F015
:104D8000D6BA00BF49EC0320014806F0D1BA00BFF3
:104D900049EC032038B50023054D044608462B6036
:104DA000FEF7F6FB431C02D12B6803B1236038BD2C
:104DB00014E903202DE9F843DFF860900646D9F89E
:104DC000008008461746B8F1000F03D00E24204695
:104DD000BDE8F88306B3336801331DD1E1B100F0BB
:104DE00061F805460028F1D0C9F8000000F080F80D
:104DF000284606F015FB044640B14046C9F800803D
:104E000000F076F8284606F006FBE0E73560002F54
:104E1000DDD02846B847DAE72124D8E720E9032087
:104E2000024B1868003818BF0120704720E90320A2
:104E300038B5194B05461B680C4603B1984744B179
:104E4000236833B11B68013303D0E3680BB1A36857
:104E50004BB906F074FE00204FF4C172412100F0FE
:104E6000F5F9212038BD204602F00EF800230B4A48
:104E700085F83C31C5E93743C2E9003363694BB17A
:104E8000074A422110684FF4D272C31A584258415F
:104E900000F0DCF90020E5E744EB0320A0EC032060
:104EA00078EB0320F8B5044607F01DF80026074606
:104EB0000E4B1B6893B19E68AEB196F82420D207C2
:104EC00011D435460FCC0FC50FCC0FC523682B600E
:104ED00096F8243043F0010386F82430384606F073
:104EE000FDFF3046F8BD1B68E4E700BF78ED032006
:104EF00010B5044618B9054B054A136010BD00F003
:104F000045FAD4F8E830002BF6D1F4E703B40008F2
:104F100074ED0320084B10B4002A14BF14461C463D
:104F2000064B1C6019B15DF8044B06F0C0BA084688
:104F30005DF8044B704700BF03B4000874ED032014
:104F4000D0F8E0302DE9F04105460C4613B1C38D91
:104F50008B424CD0D5F8DC30002B4BD09E68002E15
:104F600048D0D868002845D0013800B200281ADBA4
:104F7000002106E0128A591CA24217D209B28842C7
:104F800011DB0B1803EBD3735B1003EBC30206EBCF
:104F90008202B2F80EC003F1FF3EA445EAD90FFA2F
:104FA0008EF08842EDDA2120BDE8F0814FF6FF72E5
:104FB00099B29142F7D09BB203EBC30306EB830691
:104FC0002846B6F9122095F83011D5F8F080FDF793
:104FD0001FFC0746B8F1000F04D0002332462846D4
:104FE0001946C047EC85C5F8E06085F839710020A6
:104FF000BDE8F0810E20BDE8F08100BF2DE9F0474B
:1050000082B004460F46164601F062F9002863D1CB
:105010004F4D2B68D4F8DCA0D4F8E0800BB1534599
:1050200076D04FF00009AF6001F074F9012807460F
:1050300065D1204606F037FD002851D12B68DAF8FB
:105040000010D8F8002013B1186888426BD02046B1
:1050500006F01DFDC5E900A8D4F8F0508DF80760F2
:10506000002D67D00022204611460DF10703A84706
:10507000204600F0F5FC0546B9F1000F0FD076B9D7
:10508000D4F88C300BBB012F05D025B1314B00215A
:1050900003205B689847284602B0BDE8F087B5FA60
:1050A00085F040F207523321400900F0CFF8314635
:1050B000204600F035FF284B05461B684146204638
:1050C0009847D4F88C30002BDDD000224FF40073C9
:1050D000204600F06BF9D6E700231D4D6B6098E782
:1050E00094F825309A07A9D5D4F894305B05A5D556
:1050F0001A4B0122002120461B6898479EE7002199
:10510000012000F08BF901F005F90128FBD190E7AF
:105110006B68002B85D0434583D1AB689F4215D087
:105120004FF001097FE7696811B10968914291D098
:1051300059688CE794F82A1094F83931324699422C
:1051400028BF1946204600F0DDFB91E70025A2E7C5
:10515000A0EC032080ED032074ED032048EB032036
:10516000F8B50F46054606F0BEFE39460646284607
:10517000FFF7E6FE044620B1304606F0AFFE2046BB
:10518000F8BD01F087F8224639462846FFF736FF7A
:1051900004460028F0D1284606F085FC0028EBD014
:1051A00095F8253013F002030DD0D5F894305B0547
:1051B0000DD5B5F82A31BB420BD0B5F82C31DB1B2D
:1051C000B3FA83F35B09044A82F8DC30D4E7234660
:1051D000F9E70123F7E700BF003E00B070B50446D1
:1051E0000E4606F080FE314605462046FFF7B8FF22
:1051F000044620B9044B01465B68032098472846C3
:1052000006F06CFE204670BD80ED032013B5044609
:10521000694606F008FA204606F046FBFF280246DB
:1052200006D020469DF80010FDF782FB02B010BDAD
:105230000048FBE70080FFFF08B50B460249194014
:1052400006F0F5F9002008BD0700110010B550B9AF
:105250000548064B0160064802601868054B186057
:10526000186805F0C0FD10BD7CED032020E9032087
:1052700028EB032024EB032010B50446D0F81821B6
:105280000B4B4FF40061C3F8C42090F82420D201E6
:1052900002F4006204F016FF94F8243013F0100FAB
:1052A0004FF4007314BF034A034A536410BD00BF98
:1052B000003E00B0001002B8002002B8D0F8E43080
:1052C00013B11A68032A10D8094BDB6BC3F3C2026F
:1052D00013F0380F03F0070018BF504313F4E07FBA
:1052E000C3F3821203D050437047986A400E704750
:1052F000008001B8431C07D06FF0FF02034B104041
:105300005A62A3F580535862704700BF00E000B8AE
:1053100010B504234FF03A4101240A4AD1F818018C
:10532000C2F81831C2F814314C634FF400511163C4
:10533000410742BFC2F81431A2F58052C2F81831B9
:1053400010BD00BF002000BAF8B504460F4616464F
:1053500006F0C9FD0546A047044620B1284606F0E0
:10536000BDFD2046F8BD04F045F804220549D1F8FA
:10537000F03E23EA07033343C1F8F03E024B5A6480
:10538000ECE700BF003000B0002002B838B103687D
:10539000044A002B08BF1346034A13607047014BB1
:1053A000FAE700BF85B7000890ED032010B4D0E9FC
:1053B000544122400B4052EA030104D003495DF8F6
:1053C000044B096808475DF8044B704790ED0320D3
:1053D0000F2938B505460C460ED800F09BFF012872
:1053E0000CD1074A2846936E23F00F03234393669C
:1053F00006F05CFB002038BD2120FCE70220FAE724
:10540000003F00B0014BD86E704700BF003F00B0B6
:10541000014B0020D9667047003F00B003282DE9FA
:10542000F347884664D8344B13F80090334B1E5C26
:10543000334B13F800A006F056FD074603F082FF39
:10544000054640B100230022CDE9003301200023AE
:10545000002103F0A5FD03F07DFF48B100230022E9
:10546000CDE90033002000234FF4004103F098FD04
:10547000002E3BD0234BDC6C04F00804224B314659
:10548000DC64484604F014F852463146484604F0BD
:105490009DF81E4BDC64DDB11D4B1868D0F89410EC
:1054A000F83002F075FD1B490868FFF723FF4FF045
:1054B000FF330B60184B1A68511C06D06FF07E400A
:1054C0001649C863A1F58051CA634FF0FF321A60D4
:1054D000B8F1000F04D0124B002103205B689847FD
:1054E000384602B0BDE8F04706F0F8BC3446C5E7E0
:1054F00002B0BDE8F08700BF58D7000854D70008B5
:1055000050D70008004000B8006000B8005000B854
:1055100020E903208CED032088ED032000E000B893
:1055200080ED0320074A084B30B10221C2F8641213
:105530000422C3F8642270470421C2F864120222D4
:10554000F7E700BF006001B8005001B870B50D4624
:10555000064620B91C4B1B68D3B10E2017E000F0A3
:10556000D9FE01282DD1194B93F90040D6F8E4302B
:10557000C4F11C040BB193F92630E41A641BC4F186
:105580002B03002BB8BF5B42232B0CDD212070BD09
:1055900001F10F03002BB8BF5B42232BF6DC0B4B52
:1055A00019700020F3E786F8285006F09CFC084AA2
:1055B000136A23F4FF2343EAC423136206F08EFC2C
:1055C000EFE70220E3E700BF20E903204BEC0320D4
:1055D00000C000B810B5FFF74FFE03F01DFA06F04B
:1055E00082FC0A4A0121D2F8C03E044623F020037F
:1055F000C2F8C03E0222064B08469A60054B5B6823
:105600009847204606F06AFC002010BD003000B02C
:10561000001002B880ED0320094B08461A6D910274
:105620000BD4D3F84021D20708D4D3F8803013F438
:10563000706F14BF0120002070470120704700BF29
:10564000004001B8F8B50D46D0F8943002EA0104E4
:1056500023EA01032343C0F894304D4A01F00B03C1
:1056600023EA0401D1642340A2F580526F07064665
:10567000D36410D50121FFF7CFFF60B103F0BAFE6C
:105680004FF4007314F0040F14BF424A424A1365EA
:105690000422424B5A64E90606D514F0100F14BFD9
:1056A00000221B223E4B5A652A0618D5230611D527
:1056B0004FF40012374BDA6406F015FC0E21074652
:1056C000032002F0EDFB40F20122354B3846DA624E
:1056D00006F004FC214606F1F80002F059FCEF0543
:1056E00003D5E0053DD502F0C9FBA90503D5A20508
:1056F0003AD502F0CFFB15F48C6F1DD014F4806204
:1057000037D096F825309B070CD5F28DB6F82A31A4
:1057100093422CD0B6F82C319F1A7B427B41214A10
:1057200082F8DC30D6F8E410304606F02CF88022FF
:105730001D4B98671D4B1A612B0510D503F05AFEBF
:105740001B4A14F4006FD2F8F03E14BF43F000631C
:1057500023F00063C2F8F03E0422104B5A6400208C
:10576000F8BD02F085FBC0E702F08EFBC3E7012322
:10577000D5E76805D6D596F825309907D2D5094BD7
:10578000114683F8DC200B4B30461B689847C9E76D
:10579000006000B8005001B8006001B8002002B8F5
:1057A000004000B8003E00B0003F00B0000002B86A
:1057B000003000B048EB03200A78022A11D0101FF5
:1057C0004242424152004B781201022B0BD0191F6A
:1057D0004B424B415B000549054842EA8312FFF703
:1057E000B3BD0122EFE70123F5E700BFF0FFFF00A3
:1057F0005D6300080B78022B10D0181F4342434111
:105800005B004A78022A0BD0111F4A424A415200DB
:105810000F21044843EA8202FFF796BD0123F0E717
:105820000122F5E7896300082DE9F8430E78044664
:10583000042E0D4690F830810BD100275FFA87F9CE
:10584000484601F0C3FB08B14E4602E00137042F81
:10585000F4D1304601F0BAFB002849D094F8303139
:10586000B34209D1AA88D4F8A4309A4204D16A88F4
:10587000B4F832319A4238D084F83061AB8830467F
:10588000A4F834316B88A4F83231AB8804F59875EC
:10589000C4F8A430FF2384F82B3006F057F984F8BD
:1058A0002A00284601F022FB18BB284601F084FBA1
:1058B000F8B9D4F8E03053B194F83011414506D02E
:1058C0002046B3F91220FCF7A3FF84F839012046E3
:1058D00001F0FAFB0949A4F834010123084AD1F880
:1058E000FC1004F1F80003F091F90020BDE8F88302
:1058F00021200C2384F83031F8E700BF004F00B0BE
:10590000A43F00B070B5054690F830010C460C2855
:105910001FD0FF2901D1212070BD1AB14FF0FF32F5
:105920000D4B1A6006F012F9064695F8300101F0A9
:10593000BDFB844228BF0446E4B2B44238BF3446BB
:10594000E0B285F82B0001F0DDFCFF28E3D0002059
:10595000E2E70220E0E700BF98ED032010B590F8E1
:10596000303104460C2B44D0D0F8E03080F82A10B7
:10597000DBB3D0F8F020D2B990F839318B421CD388
:1059800000222046FFF7BEFF48BB1B4B1B7813F0DD
:10599000FD0F23D1204601F097FB18490123184A37
:1059A000D1F8FC1004F1F80003F030F916E0B0F97A
:1059B0004220B3F912309A42E2DD0022204694F8E8
:1059C0003911FFF79FFF50B9C4F8E000204605F0F9
:1059D000B0FD4FF6FF739842014601D1002010BD83
:1059E0002046BDE81040FFF7BBBBFF2380F82B30FB
:1059F000F4E70220F3E700BFB8ED0320004F00B04A
:105A0000A43F00B0F0B51D46144B04461B780F466A
:105A1000164685B05BB1D0F8E030E3B102AAB3F925
:105A200012300092002204F05CFE05B0F0BD02A925
:105A300005F0F9FD9DF808103A462046FCF7E8FE0F
:105A4000014626B92A462046FFF75CFFEDE72046CF
:105A5000FFF784FFE9E71846E7E700BF67BF0008E4
:105A6000F0B504468FB000F00DFED4F89C3005462A
:105A7000012B00D010B128460FB0F0BD6C49204674
:105A800006F09AF8D4F8E0600146E58DC4F8E40029
:105A90003EB133682BB15B681BB11A68032A00F270
:105AA000A48006F020FA01462046FFF707FC0746CF
:105AB000084606F013FAD4F8E410B3898DF80E7096
:105AC000EB1A9BB2D6E9012000FB03225948ADF83E
:105AD0000C3003680292994207D0204605F053FE2D
:105AE00080225549554B88671A61554D534E00F039
